:1000000067C0000083C0000081C000007FC0000006
:100010007DC000007BC0000079C00000DAC0000095
:1000200075C0000073C0000071C000006FC0000008
:100030006DC000006BC0000069C0000067C0000018
:1000400065C0000063C0000061C000005FC0000028
:100050005DC000005BC0000059C0000057C0000038
:1000600055C0000053C000000C9468000C9486003A
:100070000C9486000C9486000C9486000C948600E8
:100080000C9486000C94E9000C9486000C94860075
:100090000C9486000C9486000C9486000C948600C8
:1000A0000C9486000C9486000C9486000C948600B8
:1000B0000C9486000C9486000C9486000C948600A8
:1000C0000C9486000C9486000C9486000C94860098
:1000D00011241FBECFEFD8E0DEBFCDBF11E0A0E0FE
:1000E000B1E0E4E7F7E102C005900D92A233B10759
:1000F000D9F723E0A2E3B1E001C01D92A63FB20709
:10010000E1F70C9471040E94630A5BC279CFFF93FC
:10011000EF93FC0100820FB6F89404A211822282B0
:100120003382448255826682778280869186A28657
:10013000B386C486D586E686F786008B118B228B24
:10014000338B448B558B668B778B808F918FA28FEF
:10015000B38FC48FD58F0F90068E0F90078E0DB67C
:1001600000A20EB601A2FB0100A00DBE01A00EBEB2
:10017000078C0F92068C0F92D58DC48DB38DA28DF6
:10018000918D808D77896689558944893389228943
:1001900011890089F784E684D584C484B384A28459
:1001A000918480847780668055804480338022806B
:1001B000118004A00FBE0080EF91FF91089510926E
:1001C000320110923301109234011092350181E016
:1001D00008951F920F920FB60F9211242F933F9301
:1001E0004F935F936F937F938F939F93AF93BF933F
:1001F000EF93FF9380913C0190913D01A0913E01CE
:10020000B0913F010196A11DB11D80933C019093D7
:100210003D01A0933E01B0933F01883E9340A1056C
:10022000B105D8F08091400190914101A091420127
:10023000B09143010196A11DB11D8093400190939F
:100240004101A0934201B093430110923C011092EE
:100250003D0110923E0110923F0180913A01909130
:100260003B0126E0289FF001299FF00D1124E75A59
:10027000FC4F82819381853091057CF4289FF001A9
:10028000299FF00D1124E75AFC4F8081918101973D
:1002900091838083892B09F4F7D78091360190915F
:1002A0003701A0913801B09139010197A040B040C9
:1002B000C9F08093360190933701A0933801B09331
:1002C0003901FF91EF91BF91AF919F918F917F91F4
:1002D0006F915F914F913F912F910F900FBE0F90B3
:1002E0001F901895F4D5EDCF76D590933B01809370
:1002F0003A0181E090E0A0E0B0E080933601909375
:100300003701A0933801B093390110924001109247
:100310004101109242011092430110923C0110924F
:100320003D0110923E0110923F01E0910201F091D7
:100330000301108211821282E0910001F09101010B
:100340001082E0910201F091030182E0808395E048
:1003500091839DE79383E0910001F09101018083F7
:100360000895A4E0B0E0E7EBF1E00C944D0B698C4C
:100370005A8C0B8D1C8D2D8C3E8C8F8C48A03AD4C2
:10038000782EC8018034910514F480E490E003963F
:100390008C7F9C01990F440B550B29833A834B8327
:1003A0005C83CA01B9011AD28C01019661F4872DD0
:1003B00024D4CC24CA94DC2C7601C701B60124963F
:1003C000E2E10C94690B60914401709145018091C8
:1003D000460190914701A12CB12CEBE59E2E25E022
:1003E00030E040E050E00E94310B6B017C016F5F18
:1003F0007F4F8F4F9F4F9C9CF0019D9CF00D1124CF
:10040000E257FE4F20813181232B59F04FEFA41A80
:10041000B40A55E0A516B10411F7CC24CA94DC2C1B
:100420007601609344017093450180934601909357
:1004300047018FEFC816D806E806F80609F4B7CFCB
:10044000121413040CF0B3CF80914C0190914D0124
:10045000A0914E01B0914F010196A11DB11D809355
:100460004C0190934D01A0934E01B0934F018BE549
:100470008C9D50018D9DB00C1124F501E257FE4F6B
:1004800085E090E0918380833382228211AF00AFB8
:1004900029813A814B815C8122AF33AF44AF55AFA4
:1004A000EB5BFF4F1082E82DF42DD501A453BE4F16
:1004B0009F01295F3F4F81918D93811519F0E217BC
:1004C000F307C9F72BE52C9DC0012D9D900D11243C
:1004D000AC0142575E4F4A018C529E4F2FEF3FEFC7
:1004E000DC012D933C9371D1F401E85BFF4F6083F5
:1004F0007183828393833896119211921192119293
:100500001192118210828AEAF801808329A13AA10E
:10051000D4019B963C932E939A97F501EE56FE4F8D
:1005200080E090E01192019686329105D9F78BE533
:100530008C9DF0018D9DF00D1124E257FE4F64AAB1
:1005400055AA66A257A280E880A7C50186549E4F8F
:10055000DC01FE01B39640E050E0421753072CF156
:10056000F9017696EE0FFF1F6BE56C9DA0016D9D66
:10057000500D1124E40FF51FE257FE4F1182108237
:10058000FA01E257FE4F358F248F938F828F82E4DA
:1005900099E0D8018E939E936E925E920550110958
:1005A00015A304A3872D29D308CF619171916D9371
:1005B0007D934F5F5F4FD1CF61E070E080E090E0CE
:1005C000089503D11FC3A0E0B0E0E9EEF2E00C947F
:1005D0004D0B8C016A017B010DD3282FC114D1046E
:1005E000E104F10471F080915703909158030817CA
:1005F000190738F0809155039091560380179107A1
:1006000040F4822FFAD28FEFCDB7DEB7E2E10C943F
:10061000690BD701C6010796A11DB11D887F092E60
:10062000000CAA0BBB0B2090500130905101C0E58B
:10063000D1E02114310421F02016310608F478C0ED
:100640006801012E000CEE08FF08F1E0C035DF075D
:1006500009F475C08A809B80AC80BD80AE010D2EF0
:10066000000C660B770B480D591D6A1D7B1DC416C7
:10067000D506E606F70628F22101032C000C6608D1
:1006800077082114310461F04C015D018C0C9D1C34
:10069000AE1CBF1C481459046A047B0408F4B1CF93
:1006A0008090520190905301A0905401B090550158
:1006B000880E991EAA1EBB1E809252019092530171
:1006C000A0925401B09255014C155D056E057F0551
:1006D000D1F54A815B816C817D81840F951FA61FB6
:1006E000B71F8A839B83AC83BD83AE010D2E000CA4
:1006F000660B770B480F591F6A1F7B1F4415550562
:100700006605770589F4F101428153816481758121
:10071000840F951FA61FB71F8A839B83AC83BD835D
:100720008081918199838883822F67D281E06CCF09
:10073000F10140813181E101242E332E7ACF40E056
:1007400050E0BA0199CFF8013182208282839383ED
:10075000A483B58319830883E801C7CF26E0269FC9
:10076000F001279FF00D1124E75AFC4FA281B381BD
:1007700044815581249FF001259FF00D1124E75AF3
:10078000FC4FB383A2832A9FF0012B9FF00D11240D
:10079000E75AFC4F55834483089546E0489F9001F3
:1007A000499F300D1124275A3C4FF9016281738112
:1007B000653071052CF4072E000C880B990BCECFF9
:1007C0006FEF7FEF8FEF9FEF089560914801709179
:1007D000490180914A0190914B010895A0E0B0E059
:1007E000E3EFF3E064C76B017C0104D2C114D104D0
:1007F000E104F10439F401D28FEF9FEFCDB7DEB7FA
:10080000E8E071C797E0C90ED11CE11CF11C98EF1C
:10081000C9220D2C000CEE08FF08E0915001F09168
:100820005101A0E0B0E0C0E0D0E020E531E0309739
:1008300091F5209701F30A811B812C813D810C15D4
:100840001D052E053F05D1F5288139812D933C9357
:1008500040915201509153016091540170915501A2
:100860004C195D096E097F09409352015093530161
:100870006093540170935501C0D1D701C60104970C
:10088000A109B109AE01DD0F660B770B840F951F2F
:10089000A61FB71FB3CF42815381648175814C1568
:1008A0005D056E057F0540F49D0140819181D90170
:1008B0009F01E42FF92FBBCFEF01F7CF0C191D09D2
:1008C0002E093F090A831B832C833D83AE01DD0F74
:1008D000660B770B400F511F621F731FEA01B8CFE1
:1008E0000895ABD247D210924C0110924D01109254
:1008F0004E0110924F011092F1031092F2031092E8
:10090000F3031092F403EEE8F1E01182108216AEC8
:1009100011AE10AE13821282E55AFF4F83E0E53527
:10092000F80799F7C6E5D1E0188219821A821B826E
:100930001C8251D29E838D83279691E0CE38D907B1
:1009400099F73DDC48D29093F0038093EF0360E089
:1009500070E0CB01C5DF61E070E080E090E0C0DFD7
:10096000C3DCE0915001F0915101309709F03DC096
:100970001F921F921F921F928AE191E09F938F9383
:100980001F928AE08F931F9280E48F931F921F9291
:10099000E8DC462F572F8BE5849FF001859FF00DF3
:1009A0001124E257FE4F81E090E09183808327D1AC
:1009B0001F921F921F921F9280E291E09F938F934C
:1009C0001F9284E18F9381E08F931F9283E69AE0D8
:1009D0009F938F93C6DC50D38DB79EB748960FB6C2
:1009E000F8949EBF0FBE8DBFFFCF0190F081E02D28
:1009F000BCCFCF92DF92EF92FF926B017C01CA01D4
:100A0000455051094331510508F057C035E0C31630
:100A1000D104E104F10408F050C03BE5369FF00139
:100A2000379FF00D1124E257FE4F40815181452B35
:100A300009F443C036E0389FF001399FF00D1124CE
:100A4000E75AFC4F42815381022E000C330B86E0A3
:100A5000849FF001859FF00D1124E75AFC4F6081BF
:100A600071816217730730F5648175818C9DD001A7
:100A70008D9DB00D1124A75ABC4F13965C934E93D5
:100A8000129715967C936E9314972D933C93869FA3
:100A9000D001879FB00D1124A75ABC4F1396DC924A
:100AA000CE921297D582C48281E0FF90EF90DF90C2
:100AB000CF90089542815381CBCF8FEFF6CF8F92A5
:100AC0009F92AF92BF92CF92DF92EF92FF921F93CD
:100AD000CF93DF936B017C01CA01E9019A01255094
:100AE00031092331310508F083C025E0C216D10455
:100AF000E104F10408F07CC02BE5269FF001279F5C
:100B0000F00D1124E257FE4F20813181232B09F48F
:100B10006FC04A01052E000CAA08BB0826E0249FDE
:100B2000F001259FF00D1124E75AFC4F42815381BB
:100B3000052E000C660B770B0196092E000CAA0BF4
:100B4000BB0B16E084179507A607B70799F516E0C3
:100B50001C9DF0011D9DF00D1124E75AFC4F53839D
:100B6000428395828482D183C083189D9001199D10
:100B7000300D1124275A3C4FF901D382C282149FB1
:100B8000F001159FF00D1124E75AFC4FD582C48265
:100B900084179507A607B70721F581E0DF91CF916C
:100BA0001F91FF90EF90DF90CF90BF90AF909F90FC
:100BB0008F900895149FF001159FF00D1124E75AAE
:100BC000FC4F20813181C217D30708F2C21BD30B1F
:100BD000228133814A015B01A901330F660B770B38
:100BE000B1CF808191818C1B9D0B91838083D5CF68
:100BF0008FEFD4CF8FB7F89408958FBF089578946E
:100C00000895FFCFCF92DF92EF92FF921F93CF9381
:100C1000DF936B017C01EEDF182F85E0C816D1044D
:100C2000E104F10408F073C08BE58C9DF0018D9D0B
:100C3000F00D1124E257FE4F80819181892B09F438
:100C400066C0C114D104E104F10409F460C08091CC
:100C50004C0190914D01A0914E01B0914F0101972F
:100C6000A109B10980934C0190934D01A0934E01CD
:100C7000B0934F010297A105B1050CF431D32BE5D8
:100C80002C9DC0012D9D900D1124EC01C257DE4F0B
:100C90008A529E4FFC016081718182819381A701FC
:100CA00096011ED24AAD5BAD6CAD7DAD495F5F4F25
:100CB0006F4F7F4F487F052E000C660B770B88AD7A
:100CC00099AD092E000CAA0BBB0B0496A11DB11DFA
:100CD000841B950BA60BB70B76DC88819981843039
:100CE000910529F1F8F48130910529F1029709F471
:100CF0003DC08BE58C9DF0018D9DF00D1124E257D8
:100D0000FE4F11821082812F78DF81E003C0812F96
:100D100074DF8FEFDF91CF911F91FF90EF90DF9005
:100D2000CF9008958630910551F0079711F7C701CC
:100D3000B6015AD2DECF19821882C9D0F8CFCA5B69
:100D4000DF4F8881998127E0289FF001299FF00DCE
:100D50001124EA5AFE4F81819281A381B4810196C8
:100D6000A11DB11D81839283A383B483C701B60102
:100D7000F5DCBFCFCF93DF9386EF93E0A0E8BB27EE
:100D80000196A11DB11DEC01909358038093570368
:100D90002FEE38E03093560320935503E0E5F1E061
:100DA0009183808319821882092E000CAA0BBB0B39
:100DB0004FEE58E060E070E0481B590B6A0B7B0B6C
:100DC0004A835B836C837D8342835383648375830F
:100DD000DF91CF91089580910401909105018931AF
:100DE000910544F59C012E5F3F4F30930501209300
:100DF0000401AC014F5F5F4F66E0689FF001699F9F
:100E0000F00D1124E75AFC4F538342832FEF3FEF3D
:100E10003583248331832083649FF001659FF00D27
:100E20001124E75AFC4F33832283958384831182F4
:100E3000108208958FEF9FEF0895F894BDCBCF9364
:100E40009C012550310923313105E8F4C6E0C89FE3
:100E5000F001C99FF00D1124E75AFC4F2281338124
:100E60002530310584F499DCC69FF001C79FF00D51
:100E70001124E75AFC4F2FEF3FEF35832483338350
:100E80002283CF9108956FEF7FEFCB01FACF6530CA
:100E9000710581059105C8F42BE5269FF001279F78
:100EA000F00D1124E257FE4F20813181232B69F090
:100EB00022E030E0318320834091EF035091F00332
:100EC000228197DD04D081E008958FEF0895CF92BD
:100ED000DF92EF92FF928091F1039091F203A09143
:100EE000F303B091F403181619061A061B0644F40E
:100EF00081E08093F503FF90EF90DF90CF9008950D
:100F0000C0904801D0904901E0904A01F0904B0117
:100F10008BE58C9DF0018D9DF00D1124E257FE4F65
:100F200080819181019721F54091EF035091F00369
:100F30002281338186E0849FD001859FB00D1124EA
:100F4000A75ABC4F12966D917C91869FD001879FC6
:100F5000B00D1124A75ABC4F8D919C918217930715
:100F600050F282E090E091838083C701B60141DDB9
:100F70008091EF039091F00362DF462F572FBC0161
:100F8000409348015093490160934A0170934B018B
:100F90002BE5249FC001259F900D1124FC01E257F1
:100FA000FE4F41E050E05183408341E050E060E07B
:100FB00070E040933601509337016093380170938D
:100FC0003901BC016E567E4F2C9DC0012D9D900DA8
:100FD00011248E569E4F9BD88ECF462F572FBC0183
:100FE000413051056105710539F042305105610507
:100FF000710501F18FEF08958091F1039091F20353
:10100000A091F303B091F403AC01BD014F5F5F4FBA
:101010006F4F7F4F4093F1035093F2036093F303BC
:101020007093F403892B8A2B8B2B11F41092F50308
:1010300081E008958091F1039091F203A091F30370
:10104000B091F403181619061A061B069CF60197B0
:10105000A109B1098093F1039093F203A093F303E4
:10106000B093F403892B8A2B8B2B11F78091F50316
:101070008115F1F22CDFDCCFCF92DF92EF92FF925D
:101080000F931F93CF936B017C01B4DDC82F85E0D4
:10109000C816D104E104F10460F48BE58C9DF001E5
:1010A0008D9DF00D1124E257FE4F808191810097B4
:1010B00069F48C2FA2DD0FEF1FEFC801CF911F91B4
:1010C0000F91FF90EF90DF90CF900895059789F7EB
:1010D00002811381C701B601DADE8C2F8EDDEDCFE0
:1010E000A0E0B0E0E5E7F8E0E1C26B017C01B22EE0
:1010F000032F142FD52F7EDDC82F85E0C816D1040D
:10110000E104F10460F48BE58C9DF0018D9DF00D00
:101110001124E257FE4F80819181009739F48C2F82
:101120006CDD8FEFCDB7DEB7E9E0DCC2DF01A05B9D
:10113000BF4F2C912111F3CFE45BFF4FB0820183AD
:101140001283D38321E02C938330910539F4C701B6
:10115000B6019DDE8C2F51DD81E0E4CF0797D1F7FA
:10116000C701B60141D0F3CFCF92DF92EF92FF9249
:10117000CF936B017C01F7FC1CC0C114D104E104C6
:10118000F10419F4AFD081E015C034DDC82F4091CF
:101190003A0150913B016091480170914901809161
:1011A0004A0190914B0196018ADC8F3F49F48C2FC4
:1011B00024DD8FEFCF91FF90EF90DF90CF900895D7
:1011C00080914801909149012BE5289FF001299FCA
:1011D000F00D1124E257FE4F84E090E0918380836C
:1011E00076DE8C2F0ADDCFCFCF92DF92EF92FF9287
:1011F000CF936B017C01FEDCC82F85E0C816D104BB
:10120000E104F10460F48BE58C9DF0018D9DF00DFF
:101210001124E257FE4F80819181009749F48C2F71
:10122000ECDC8FEFCF91FF90EF90DF90CF9008959F
:101230008430910511F0079791F726E02C9DD0019D
:101240002D9DB00D1124A75ABC4F12968D919C91E3
:101250001397853091057CF4289FF001299FF00DAC
:101260001124E75AFC4F808191812D913C91820F8E
:10127000931F91838083C701B60170DA8C2FBDDC88
:1012800081E0D0CFA2DABECCCF9361E070E080E005
:1012900090E0A3DEC6E080913A0190913B01C89FA7
:1012A000F001C99FF00D1124E75AFC4F22813381D0
:1012B000253031053CF062E070E080E090E08DDEAA
:1012C000CF910895C29FF001C39FF00D1124E75AFA
:1012D000FC4F20813181232B71F7B1DDD8DDDBCFCD
:1012E00090CC0895CF9386DCC82FF1DD8C2F85DC60
:1012F00081E0CF910895AC019B01883091051CF5E8
:101300006115710509F457C0A0910601B09107015C
:101310006130710509F448C0E0910A01F0910B01B8
:101320006230710559F5A0910601B09107018C91C9
:1013300021E030E0B90102C0660F771F4A95E2F75D
:1013400086278C9349C00E971CF5485051096115AA
:10135000710509F444C0A0911201B09113016130EC
:10136000710511F1A0911201B09113016230710564
:1013700009F455C0E0911601F0911701808190E0C9
:1013800002C0959587954A95E2F7E82FE17024C051
:101390004E5051096115710589F16130710599F55A
:1013A000A0910C01B0910D018C9101C0220F4A95C2
:1013B000EAF7282B21C0A0910601B09107018C917A
:1013C00021E030E0B90102C0660F771F4A95E2F7CD
:1013D000AB01409548234C938E2F90E00895A09147
:1013E0001201B09113018C9121E030E001C0220F75
:1013F0004A95EAF7209528232C93EECFA0910C0173
:10140000B0910D01F0CFE0911001F0911101623027
:10141000710509F0B3CFA0910C01B0910D018C9131
:1014200021E030E001C0220F4A95EAF7822789CFF8
:101430009C0188309105BCF4E0910601F091070110
:10144000308181E090E001C0880F2A95EAF7982F5B
:10145000909593239083E0910801F0910901908188
:10146000892B808308950E97B4F4E0911201F091D6
:10147000130140812850310981E090E001C0880FBC
:101480002A95EAF7982F909594239083E091140180
:10149000F0911501E4CFE0910C01F0910D01408134
:1014A0002E50310981E090E001C0880F2A95EAF7BB
:1014B0008095942F98239083E0910E01F0910F0175
:1014C00090818923CECF36D081E08F9384EF8F93A4
:1014D0001F928DE08F931F9282E08F9385E291E0BF
:1014E0009F938F931F9284E18F931F9280E88F9335
:1014F00084E09BE09F938F930E94B101BDDD8DB787
:101500009EB70E960FB6F8949EBF0FBE8DBFC0E07B
:10151000D0E068EE73E080E090E026DE219689E27C
:1015200091E01DD064E070E0CE0128D08EE291E021
:1015300016D0EFCFE0911801F0911901158287E6DE
:10154000848386E0828388E181830895E091180195
:10155000F0911901908195FFFDCF86830895CF9377
:10156000DF93EC018991811107C08DE0EFDF8AE004
:10157000EDDFDF91CF910895E9DFF4CFA2E0B0E095
:10158000E3ECFAE090C09C01FB018DB79EB79A8313
:1015900089838B01ADB7BEB7A61BB70B0FB6F89406
:1015A000BEBF0FBEADBF8DB79EB701966C015C018B
:1015B000E12CF12C8AE0882E912CEE16FF0674F0B7
:1015C0000150110917FF1AC089819A810FB6F8944A
:1015D0009EBF0FBE8DBF2296ECE081C080E3121645
:1015E00013062CF4C901B40129D0805D9B01D501FB
:1015F0008D935D01BFEFEB1AFB0ADFCFF601E00F21
:10160000F11F8081A3DFDCCFFB01C081D181C280CB
:10161000D380CE010DDF0D2C000CEE08FF0861E039
:1016200070E0CE0168DEC701B6019EDD60E070E0CB
:10163000CE0161DEC701B60197DDF1CF97FB072E22
:1016400016F4009406D077FD08D05ED007FC05D0D4
:101650003EF4909581959F4F0895709561957F4FC9
:101660000895052E97FB16F400940FD057FD05D072
:101670005FD007FC02D046F408C0509540953095E5
:1016800021953F4F4F4F5F4F0895909580957095EE
:1016900061957F4F8F4F9F4F08952F923F924F92AA
:1016A0005F926F927F928F929F92AF92BF92CF92F2
:1016B000DF92EF92FF920F931F93CF93DF93CDB7FB
:1016C000DEB7CA1BDB0B0FB6F894DEBF0FBECDBF73
:1016D00009942A88398848885F846E847D848C8444
:1016E0009B84AA84B984C884DF80EE80FD800C814D
:1016F0001B81AA81B981CE0FD11D0FB6F894DEBF30
:101700000FBECDBFED010895AA1BBB1B51E107C061
:10171000AA1FBB1FA617B70710F0A61BB70B881F81
:10172000991F5A95A9F780959095BC01CD01089510
:10173000A1E21A2EAA1BBB1BFD010DC0AA1FBB1FD5
:10174000EE1FFF1FA217B307E407F50720F0A21B47
:10175000B30BE40BF50B661F771F881F991F1A94B4
:1017600069F760957095809590959B01AC01BD01DE
:04177000CF01089508
:101774007000B00005002B002A0029002800270073
:101784002600250024002300C0006E756C6C7000D8
:101794006D61696E006C656400686F6C61200A0D90
:0217A400000043
:00000001FF
