:100000004AC1000066C1000064C1000062C1000076
:1000100060C100005EC100005CC100005AC1000068
:1000200058C1000056C1000054C1000052C1000078
:1000300050C100004EC1000029C200004AC10000AA
:1000400048C1000046C10000B2C1000042C100002A
:1000500040C100003EC100003CC100003AC10000A8
:1000600038C1000036C100000C944B010C946901AA
:100070000C9469010C9469010C9469010C94690158
:100080000C9469010C9469010C9469010C94690148
:100090000C9469010C9469010C9469010C94690138
:1000A0000C9446020C9469010C9469010C9469014A
:1000B0000C94D7010C9469010C9469010C946901AA
:1000C0000C9469010C9469010C9469010C94690108
:1000D0000000000000000000434F4E534F4C45000D
:1000E00000003F083F083F083F083F083D083F0821
:1000F0003F083F0800383F083501000000000000BD
:10010000004E554C4C4445560000003F083F083F08
:10011000083F083F083D083F083F083D0800003DF4
:10012000080002000000000000004E414D45535001
:1001300041434500E00D950F3D083D083D083D0851
:100140003D083D083D0800003D08006E616D696E88
:100150006974202864657669636573293A0D0A001D
:100160004552524F522047455453544B2025730A51
:10017000006E616D6573706163653A2064657669D0
:100180006365206E616D6520257320746F6F206C30
:100190006F6E670D0A006E616D6573706163653A1D
:1001A0002063616E6E6F74206D6F756E74202564B0
:1001B0000D0A000A0A416C6C20757365722070721A
:1001C0006F636573736573206861766520636F6D17
:1001D000706C657465642E0A0A000A57656C636F5B
:1001E0006D6520746F2058696E75210A0A0D0958D3
:1001F000696E75204F5320436F7079726967687418
:100200002028632920323031322C20323031350A17
:100210000D09446F75676C617320452E20436F6D27
:10022000657220616E64204352432050726573737F
:100230002C20496E632E0A0A0D0958696E75204FED
:100240005320666F72204156522061746D6567615C
:10025000333238702076302E312028632920323016
:1002600032300A0D0952616661656C2049676E6122
:1002700063696F205A7572697461203C72616661AE
:100280004066692E756E636F6D612E6564752E61B3
:10029000723E0A0A0D0011241FBECFEFD8E0DEBF68
:1002A000CDBF11E0A0E0B1E0E2ECFAE202C00590BF
:1002B0000D92A035B107D9F724E0A0E5B1E001C067
:1002C0001D92A939B207E1F70C9475060E94E51159
:1002D0001DC396CEFF93EF93FC0100820FB6F894F6
:1002E00004A21182228233824482558266827782FE
:1002F00080869186A286B386C486D586E686F786F2
:10030000008B118B228B338B448B558B668B778BB9
:10031000808F918FA28FB38FC48FD58F0F90068E51
:100320000F90078E0DB600A20EB601A2FB0100A031
:100330000DBE01A00EBE078C0F92068C0F92D58DBC
:10034000C48DB38DA28D918D808D778966895589F5
:1003500044893389228911890089F784E684D58408
:10036000C484B384A284918480847780668055801D
:10037000448033802280118004A00FBE0080EF9162
:10038000FF910895E0910001F0910101158289E14A
:10039000848386E0828388E981830895E091000167
:1003A000F0910101908195FFFDCF868308951F9202
:1003B0000F920FB60F9211242F933F934F935F9399
:1003C0006F937F938F939F93AF93BF93EF93FF931D
:1003D0004091C6004093540120E030E061E070E0BD
:1003E00080E090E00E94C311FF91EF91BF91AF9127
:1003F0009F918F917F916F915F914F913F912F913D
:100400000F900FBE0F901F901895A4E0B0E0EBE0A6
:10041000F2E00C943D1219821A821B821C8219820E
:100420001A821B821C8209811A812B813C8106174A
:1004300017072807390770F4000009811A812B81FA
:100440003C810F5F1F4F2F4F3F4F09831A832B8330
:100450003C83E9CF2496E4E00C94591280E284B9FD
:100460002D9A60E47DE083E090E0CFDF2D9860E49A
:100470007DE083E090E0C9CF10927D0110927E0173
:1004800010927F011092800181E008951F920F92D7
:100490000FB60F9211242F933F934F935F936F9357
:1004A0007F938F939F93AF93BF93EF93FF9380912D
:1004B000870190918801A0918901B0918A010196EC
:1004C000A11DB11D8093870190938801A09389019C
:1004D000B0938A01883E9340A105B105D8F0809180
:1004E0008B0190918C01A0918D01B0918E010196AC
:1004F000A11DB11D80938B0190938C01A0938D0160
:10050000B0938E0110928701109288011092890198
:1005100010928A01809181019091820126E0289FAA
:10052000F001299FF00D1124EC57FC4F828193813B
:100530008530910584F4289FF001299FF00D112446
:10054000EC57FC4F80819181019791838083892BA7
:1005500011F40E94DE0C8091830190918401A0919E
:100560008501B09186010197A109B10949F08093F5
:10057000830190938401A0938501B09386010DC0FF
:1005800081E090E0A0E0B0E080938301909384014B
:10059000A0938501B09386017AD7FF91EF91BF9127
:1005A000AF919F918F917F916F915F914F913F910B
:1005B0002F910F900FBE0F901F901895A8D6909373
:1005C00082018093810181E090E0A0E0B0E080931F
:1005D000830190938401A0938501B09386011092CA
:1005E0008B0110928C0110928D0110928E0110924D
:1005F0008701109288011092890110928A0185B5B5
:10060000836085BD84B5826084BD8FE387BDEEE6DF
:10061000F0E08081826080830895CF92DF92EF9234
:10062000FF92CF93DF936B017C011FD5D82F83E01E
:10063000C816D104E104F10420F08D2F19D5CFEFB5
:1006400011C029E22C9DC0012D9D900D11248053D5
:100650009F4FFC0176960590F491E02D0995C82FE7
:100660008D2F06D58C2FDF91CF91FF90EF90DF90EB
:10067000CF900895A6E0B0E0E0E4F3E00C942F12F0
:100680002B8D29838C8CED8CFE8C09A13AA13E83A5
:10069000ECD4982E40E4E416F1041CF470E4E72E48
:1006A000F12C83E0E80EF11C9CEFE92227010F2CCE
:1006B000000C66087708C301B20169D21C010196DB
:1006C00079F480E691E00E94170D892DD1D4FFEFD7
:1006D000FA832FEF2B833FEF3C834FEF4D8309C10C
:1006E000309150012091510180915201909153011C
:1006F000A12CB12C1BE5632F722F25E030E040E0E8
:1007000050E00E9409126B017C016A83DB82EC825B
:10071000FD82169FF001179FF00D1124ED56FE4F3C
:1007200080819181B701A6014F5F5F4F6F4F7F4F6F
:10073000892B79F4409350015093510160935201F9
:10074000709353018FEFC816D806E806F806A1F497
:10075000B8CF342F252FCB01EFEFAE1ABE0AF5E04C
:10076000AF16B10441F6409350015093510160938C
:10077000520190935301A5CF2F8D38A11216130665
:100780000CF09FCF80915A0390915B03A0915C0382
:10079000B0915D030196A11DB11D80935A03909302
:1007A0005B03A0935C03B0935D0385E090E09183CD
:1007B00080833383228331AE20AE42AE53AE64AE2B
:1007C00075AEDF01AB5BBF4F1C92A02FBE818F01C6
:1007D00080E090E02D91F801E80FF91F26AF222369
:1007E00021F0019687309105A9F72BE52C9DC001DA
:1007F0002D9D900D1124FC01ED56FE4F5F01EA5B2B
:10080000FF4F8FEF9FEF91838083B8D1F501E85BB5
:10081000FF4F608371838283938338961082319671
:1008200011821082329611821082329611821082C9
:100830008AEAF10180838BA19CA1F50193A782A78D
:1008400020E030E0F801E20FF31F14822F5F3F4FEA
:1008500026323105B9F72BE52C9DF0012D9DF00DC9
:100860001124ED56FE4F298124AB85AA26A387A229
:1008700020E820A7DE01959620E030E02817390710
:1008800064F44D915D91F901EE0FFF1FE00FF11F30
:1008900055A744A72F5F3F4FF1CFFC017696EE0F8F
:1008A000FF1F4BE54C9D90014D9D300D1124E20F33
:1008B000F31FED56FE4F11821082F901ED56FE4FE7
:1008C000848F958F21543E4F228F338F8CED9CE087
:1008D000D10111978C9311979C93119739813C9377
:1008E00011978C9245E0241A310824A235A2892D53
:1008F000BFD36A817B818C819D812696E2E10C9435
:100900004B1261E070E080E090E0089537D1B9C308
:10091000A0E0B0E0EEE8F4E00C943512EC016A01DE
:100920007B01A3D3C114D104E104F10409F447C04D
:100930002091800330918103C217D30708F43FC090
:1009400020918203309183032C173D07C0F197E07B
:10095000C90ED11CE11CF11C98EFC922A601DD0CC7
:10096000660B770BE0917A03F0917B03AAE7B3E083
:10097000309741F0EC17FD0740F5DF010190F08161
:10098000E02DF6CF93E0AA37B907D1F11296CD90BA
:10099000DD90ED90FC9015978D010B2E000C220B35
:1009A000330B0C0D1D1D2E1D3F1D6E010D2E000C59
:1009B000EE08FF08C016D106E206F30618F458D375
:1009C0008FEF82C0309741F41EC093E0AA37B90779
:1009D000E9F600E010E098016E010D2E000CEE0823
:1009E000FF08C40ED51EE61EF71E4F010F2E000C89
:1009F000AA08BB088C149D04AE04BF0420F4DFCF0A
:100A000000E010E09801C0907C03D0907D03E0905E
:100A10007E03F0907F03C40ED51EE61EF71EC09223
:100A20007C03D0927D03E0927E03F0927F036E01FF
:100A30000D2E000CEE08FF08C016D106E206F306E4
:100A400091F412960D911D912D913C911597400FA7
:100A5000511F621F731F12964D935D936D937C938C
:100A60001597ED0108C0F983E8834A835B836C83A3
:100A70007D83CD93DC934A815B816C817D818E0186
:100A80000D2E000C220B330B040F151F261F371FD2
:100A90006F010F2E000CEE08FF080C151D052E052A
:100AA0003F0581F40281138124813581400F511F5C
:100AB000621F731F4A835B836C837D832081318136
:100AC00039832883D5D281E0CDB7DEB7ECE00C9432
:100AD000511226E0AC01249FC001259F900D1124E6
:100AE000FC01EC57FC4F42815381453051051CF508
:100AF000BA01052E000C880B990B249FF001259F4D
:100B0000F00D1124EC57FC4FA281B3814481558133
:100B1000249FF001259FF00D1124EC57FC4FB38367
:100B2000A2832A9FF0012B9FF00D1124EC57FC4F5C
:100B30005583448308956FEF7FEFCB01089546E01E
:100B4000469FF001479FF00D1124EC57FC4FA28106
:100B5000B38124813581429FF001439FF00D112420
:100B6000EC57FC4FB383A2834A9FF0014B9FF00DDB
:100B70001124EC57FC4F35832483089560918F0135
:100B80007091900180919101909192010895A0E05F
:100B9000B0E0EDECF5E00C9439126B017C0165D20C
:100BA000C114D104E104F10449F197E0C90ED11C4C
:100BB000E11CF11C98EFC9220D2C000CEE08FF0877
:100BC000E0917A03F0917B03A0E0B0E0C0E0D0E0D8
:100BD0002AE733E0309781F0428153816481758147
:100BE0004C155D056E057F0510F0D901EF019F01E1
:100BF0000190F081E02DEECF209721F439D28FEFD4
:100C00009FEF41C00A811B812C813D81C016D10616
:100C1000E206F30629F4288139812D933C9311C013
:100C20000C191D092E093F090A831B832C833D8360
:100C3000AE01DD0F660B770B040F151F261F371F44
:100C4000E80140917C0350917D0360917E03709197
:100C50007F034C195D096E097F0940937C03509313
:100C60007D0360937E0370937F0302D2D701C60198
:100C70000497A109B109AE01DD0F660B770B840F54
:100C8000951FA61FB71FCDB7DEB7E8E00C9455122D
:100C9000CF92DF92EF92FF92CF93DF936B017C01B3
:100CA000E4D1D82F83E0C816D104E104F10420F088
:100CB0008D2FDED1CFEF11C029E22C9DC0012D9DDB
:100CC000900D112480539F4FFC0172960590F49172
:100CD000E02D0995C82F8D2FCBD18C2FDF91CF918F
:100CE000FF90EF90DF90CF9008957CD384E091E067
:100CF0009F938F93A6D28AED91E099D6D1D210928C
:100D00005A0310925B0310925C0310925D031092E1
:100D1000EC031092ED031092EE031092EF03E3E95F
:100D2000F1E00F900F901182108216AE11AE10AE4E
:100D300013821282E55AFF4F83E0EA35F80799F7EC
:100D4000CEE5D3E00AE713E0188219821A821B82EB
:100D50001C82DDD29E838D8327960C171D07A1F779
:100D60008BDBD5D29093EB038093EA0360E070E0D5
:100D7000CB018EDF61E070E080E090E089DF62E02F
:100D800070E080E090E084DF19DCE0917A03F0917C
:100D90007B0380E090E0DC01309761F04281538179
:100DA00064817581840F951FA61FB71F0190F08184
:100DB000E02DF2CFBF93AF939F938F9382E191E0A9
:100DC0009F938F933ED21F921F921F921F9288E291
:100DD00091E09F938F931F928AE08F931F9280E4FC
:100DE0008F931F921F9246DC2BE5269FF001279FD1
:100DF000F00D1124ED56FE4F81E090E09183808349
:100E000039D11F921F921F921F928EE291E09F9301
:100E10008F931F9284E18F9381E08F9388EB8F9360
:100E200085EE91E19F938F9325DC02D48DB79EB719
:100E30004E960FB6F8949EBF0FBE8DBFFFCF1F9387
:100E4000CF93DF93FA0135973B9708F054C0653094
:100E500071058105910508F04EC03BE5369FF00114
:100E6000379FF00D1124ED56FE4F0190F081E02DDB
:100E7000EF2B09F440C036E0349FF001359FF00DB0
:100E80001124EC57FC4F42815381022E000C330B8E
:100E9000C6E016E0C49FF001C59FF00D1124EC5789
:100EA000FC4FA081B181A217B30718F04281538192
:100EB000F0CFC481D581169FD001179FB00D1124AA
:100EC000AC57BC4F13965C934E9312971596DC93D8
:100ED000CE9314972D933C931C9FD0011D9FB00D72
:100EE0001124AC57BC4F13967C936E931297758365
:100EF000648381E001C08FEFDF91CF911F9108954E
:100F00004F925F926F927F928F929F92AF92BF9219
:100F1000CF92DF92EF92FF92CF93DF9300D000D079
:100F2000CDB7DEB76B017C01CA0105970B9708F0BE
:100F300088C085E0C816D104E104F10408F081C03E
:100F40008BE58C9DF0018D9DF00D1124ED56FE4F2B
:100F500080819181892B09F474C04A01052E000C0F
:100F6000AA08BB0886E0849FF001859FF00D11243C
:100F7000EC57FC4F82819381092E000CAA0BBB0B0E
:100F80004F5F5F4F2A01550F6608770849825A82E2
:100F90006B827C8266E049805A806B807C808415FD
:100FA0009505A605B70569F566E06C9DF0016D9D98
:100FB000F00D1124EC57FC4F5382428295828482BB
:100FC00031832083689DA001699D500D1124FA0191
:100FD000EC57FC4FD382C282649DF001659DF00DF9
:100FE0001124EC57FC4FD582C48284159505A605C3
:100FF000B70529F180819181821B930B91838083B6
:101000001EC0689FF001699FF00D1124EC57FC4F42
:10101000408151812417350758F0241B350B42813C
:1010200053814C015D01CA01550FAA0BBB0BB3CF15
:101030002C013D0189819A81AB81BC81B5CF81E0D2
:1010400001C08FEF0F900F900F900F90DF91CF9115
:10105000FF90EF90DF90CF90BF90AF909F908F90D8
:101060007F906F905F904F9008958FB7F894089598
:101070008FBF089578940895FFCF8FEF089581E092
:101080000895AF92BF92CF92DF92EF92FF921F939B
:10109000CF93DF936B017C01E8DF182F85E0C81642
:1010A000D104E104F10488F48BE58C9DF0018D9D61
:1010B000F00D1124ED56FE4F80819181892B29F08E
:1010C000C114D104E104F10421F4812FD1DF8FEFA9
:1010D0009DC080915A0390915B03A0915C03B091F5
:1010E0005D030197A109B10980935A0390935B03B3
:1010F000A0935C03B0935D030297A105B1050CF4C6
:1011000089D48BE58C9D50018D9DB00C1124F50187
:10111000E552FE4F6081718182819381A701960122
:10112000D7D2C0E0D0E0FE01EA0DFB1DEC51FE4F2E
:1011300060817181072E000C880B990B6EDA229664
:10114000C630D10581F78BE58C9DE0018D9DD00DDA
:101150001124CD56DE4F4AAD5BAD6CAD7DAD495F20
:101160005F4F6F4F7F4F487F052E000C660B770B4C
:1011700088AD99AD092E000CAA0BBB0B0496A11DDE
:10118000B11D841B950BA60BB70BC2DB888199811F
:101190008430910581F030F48130910549F0029757
:1011A00029F127C08630910551F0079721F021C021
:1011B000198218826CD1C701B601B0D31AC0CA5BBC
:1011C000DF4F8881998127E0289FF001299FF00D4A
:1011D0001124E25AFC4F81819281A381B48101964E
:1011E000A11DB11D81839283A383B483C701B6017E
:1011F000A6DC8BE58C9DF0018D9DF00D1124ED5644
:10120000FE4F11821082812F33DF81E0DF91CF9179
:101210001F91FF90EF90DF90CF90BF90AF90089517
:10122000CF93DF93C82F21DFD82FCA3011F48DE080
:10123000B5D88C2FB3D88D2F1BDF81E0DF91CF91F4
:101240000895A1E5B0E0E7E2F9E00C943B128E01CD
:10125000065A1F4FF801E190F1908F0121E530E02F
:1012600040E050E060E070E0CE0101960E94AF12D5
:101270009801A70160E570E0CE0101960E94B612C8
:101280008E010F5F1F4FF80181918F01882311F0AC
:10129000C7DFF9CF81E0CF5ADF4FE6E00C94571259
:1012A0000F931F93CF93DF9389E994E0A0E8BB27C6
:1012B0000196A11DB11DEC019093810380938003E1
:1012C0002FEF38E03093830320938203EAE7F3E0C3
:1012D0009183808319821882092E000CAA0BBB0B04
:1012E0004FEF58E060E070E08A019B01081B190B8A
:1012F0002A0B3B0B0A831B832C833D8302831383BE
:1013000024833583DF91CF911F910F910895209110
:101310000201309103012131310544F5C9010296E2
:101320009093030180930201A9014F5F5F4F66E034
:10133000629FF001639FF00D1124EC57FC4F538323
:1013400042838FEF9FEF9583848391838083649F93
:10135000F001659FF00D1124EC57FC4F93838283BD
:101360003583248311821082C90108958FEF9FEF86
:1013700008958F929F92AF92BF92EF92FF920F9338
:101380001F93CF93DF934B015C018A0179016DDEDE
:10139000D82F83E088169104A104B10420F08D2F8A
:1013A00067DECFEF13C029E2289DC001299D900D73
:1013B000112480539F4FFC0174960590F491E02D09
:1013C000A701B8010995C82F8D2F52DE8C2FDF9110
:1013D000CF911F910F91FF90EF90BF90AF909F9092
:1013E0008F900895F8943AD839D80E94C20189CADA
:1013F000CF939C01255031092B303105F8F4C6E01C
:10140000C89FF001C99FF00D1124EC57FC4F2281B9
:1014100033812530310594F45CDBC69FF001C79F12
:10142000F00D1124EC57FC4F2FEF3FEF3583248351
:1014300033832283462F372F282F04C04FEF3FEFEF
:101440002FEF9FEF642F732F822FCF910895653078
:10145000710581059105C8F42BE5269FF001279FB2
:10146000F00D1124ED56FE4F20813181232B69F0C0
:1014700022E030E0318320834091EA035091EB0376
:101480002281DDDC04D081E008958FEF0895CF92B2
:10149000DF92EF92FF928091EC039091ED03A09187
:1014A000EE03B091EF03181619061A061B0624F472
:1014B00081E08093F0036BC0C0908F01D0909001C9
:1014C000E0909101F09092018BE58C9DF0018D9D53
:1014D000F00D1124ED56FE4F80819181019729F581
:1014E000228133814091EA035091EB0386E0849F8F
:1014F000D001859FB00D1124AC57BC4F12966D9151
:101500007C911397869FD001879FB00D1124AC5713
:10151000BC4F8D919C9182179307C8F182E090E0B7
:1015200091838083C701B6018ADC8091EA039091A0
:10153000EB035EDF60938F017093900180939101C4
:10154000909392012BE5269FD001279FB00D112487
:10155000FD01ED56FE4F41E050E05183408341E0F4
:1015600050E060E070E04093830150938401609309
:10157000850170938601BD0169567E4F2C9DC00187
:101580002D9D900D112489569E4F0E946A01FF9057
:10159000EF90DF90CF90089561307105810591053E
:1015A00031F06230710581059105F1F03FC0809105
:1015B000EC039091ED03A091EE03B091EF03AC0129
:1015C000BD014F5F5F4F6F4F7F4F4093EC035093D0
:1015D000ED036093EE037093EF03892B8A2B8B2B23
:1015E00019F51092F00320C08091EC039091ED0367
:1015F000A091EE03B091EF03181619061A061B0608
:10160000ACF40197A109B1098093EC039093ED0329
:10161000A093EE03B093EF03892B8A2B8B2B21F43D
:101620008091F003811133DF81E008958FEF0895F9
:10163000CF92DF92EF92FF921F93CF93DF936B01D4
:101640007C0113DD182F85E0C816D104E104F104F4
:1016500070F48BE58C9DF0018D9DF00D1124ED56FD
:10166000FE4F80819181009711F0059729F0812F1D
:10167000FFDC8FEF9FEF09C0D281C381C701B601A4
:10168000E6DE812FF5DC8D2F9C2FDF91CF911F910E
:10169000FF90EF90DF90CF900895CF93DF93EC0110
:1016A000E4DCC430D10558F497E09C9FF0019D9F85
:1016B000F00D1124E25AFC4F9081911103C0D8DC47
:1016C0008FEF03C0C181D4DC8C2FDF91CF910895BF
:1016D0008F929F92AF92BF92CF92DF92EF92FF9242
:1016E000CF934B015C0169017A01BFDCC82F85E013
:1016F00088169104A104B10490F48BE5889DF00153
:10170000899DF00D1124ED56FE4F80819181009747
:1017100031F0DF01A05BBF4F2C91222321F08C2FF1
:10172000A7DC8FEF16C0E45BFF4FC082D182E2825C
:10173000F38221E02C938330910529F0079731F44F
:10174000C501B401EBD0C501B40181DE8C2F90DC62
:1017500081E0CF91FF90EF90DF90CF90BF90AF905E
:101760009F908F9008950F931F93CF938C017DDCF2
:10177000C82F0430110558F487E0809FF001819F45
:10178000F00D1124E25AFC4F8081811104C08C2F8E
:101790006FDC8FEF17C081819281A381B481AC018E
:1017A000BD014F5F5F4F6F4F7F4F41835283638314
:1017B0007483B7FF04C0858196811ADE48DE8C2FC2
:1017C00057DC81E0CF911F910F910895A0E0B0E028
:1017D000EBEEFBE04DC68C016A017B0146DCB82EC6
:1017E0000430110568F4F7FC0BC087E0809FE0012E
:1017F000819FD00D1124C25ADC4F8881811104C011
:101800008B2D36DC8FEF31C061E070E080E090E03E
:10181000C3DE8E010F5F1F4F2596C114D104E10472
:10182000F104D9F0F80180819181A281B381AC01EA
:10183000BD014F5F5F4F6F4F7F4F40835183628386
:101840007383B7FF04C088819981D2DD00DEF1E0A7
:10185000CF1AD108E108F108E0CF62E070E080E043
:1018600090E09ADE8B2D04DC81E0CDB7DEB7E9E0B5
:101870001BC6CF92DF92EF92FF92CF93DF9397FD3B
:1018800033C06B017C01672B682B692B11F4C6D028
:1018900029C0EBDBD82F40918101509182016091EA
:1018A0008F01709190018091910190919201960128
:1018B00027DBC82F8F3F19F48D2FDADB16C08091FC
:1018C0008F01909190012BE5289FF001299FF00D49
:1018D0001124ED56FE4F84E090E091838083D7DDA4
:1018E0008D2FC6DBC1E001C0CFEF8C2FDF91CF91F0
:1018F000FF90EF90DF90CF9008956C3924EC720741
:1019000020E28207910540F49B01AC01A8EEB3E010
:101910009CD5AFDF81E008958FEF0895CF92DF92DD
:10192000EF92FF92CF936B017C019FDBC82F85E084
:10193000C816D104E104F10488F48BE58C9DF00114
:101940008D9DF00D1124ED56FE4F80819181009701
:1019500029F08430910531F0079721F08C2F88DB36
:101960008FEF24C026E02C9DD0012D9DB00D1124B9
:10197000AC57BC4F12968D919C9113978530910571
:101980007CF4289FF001299FF00D1124EC57FC4FA7
:10199000208131818D919C91820F931F918380834F
:1019A000C701B601CCD88C2F63DB81E0CF91FF90CB
:1019B000EF90DF90CF900895E1D863CBCF9361E0B3
:1019C00070E080E090E0E8DDC6E0809181019091D8
:1019D0008201C89FF001C99FF00D1124EC57FC4F04
:1019E000228133812530310574F4C29FF001C39FF9
:1019F000F00D1124EC57FC4F20813181232B19F479
:101A0000F7DC25DDE2CF62E070E080E090E0C4DD4D
:101A1000CF91089583EB91E00AD02ECBCF9325DBB5
:101A2000C82F35DD8C2F24DB81E0CF9108950F93F3
:101A30001F93CF93DF938C017AD5E801080F191F0C
:101A4000C017D10731F0FE01219685910E94CE0189
:101A5000F7CFDF91CF911F910F9108950F931F93AF
:101A600000E010E09801041715072607370764F413
:101A7000DC01ED91CD010F5F1F4F2F4F3F4FE11163
:101A8000F2CFB801C90104C06FEF7FEF8FEF9FEF76
:101A90001F910F910895A6E0B0E0E0E5FDE0DFC4FE
:101AA000182F9C831B0169017A01DFDA082F40E1BE
:101AB00050E060E070E0812F9C81D0DF4B015C0141
:101AC00041E050E060E070E0C101C8DF2B013C0163
:101AD0002FEF82169206A206B20649F16F3F7F4FA2
:101AE0008F4F9F4F21F153E0C516D104E104F1045B
:101AF000F0F48091F1039091F203A091F303B0917F
:101B0000F40384309105A105B1058CF419831C817F
:101B10001A8325E1289FA001299F500D11245E837F
:101B20004D8320E030E040E050E0BA0104C0802F57
:101B30009FDA8FEF42C0481559056A057B059CF472
:101B4000E981FA811191FA83E983ED81FE81E20F47
:101B5000F31FEB50FC4F10834F5F5F4F6F4F7F4F72
:101B60002F5F3F4FE8CF14141504160417045CF4DC
:101B7000F101208135E1389FF001399FF00D1124EA
:101B8000EB50FC4F208B25E1289FF001299FF00DA1
:101B90001124EB50FC4FC18AD28AE38AF48A019661
:101BA000A11DB11D8093F1039093F203A093F30361
:101BB000B093F403802F5CDA81E02696E2E16BC4F7
:101BC000A0E2B0E0E5EEFDE04CC486E0E9E3F1E040
:101BD000DE015B9601900D928A95E1F71092F10378
:101BE0001092F2031092F3031092F4038BE491E04D
:101BF0001EDF80EDE82E80E0F82E88E090E09C016A
:101C0000205D3040690193E3892E91E0992EDE0139
:101C10005B968E010F5F1F4F412C512C32015801F2
:101C20008D91F8018193882339F03FEF431A530ACD
:101C3000630A730A8F01F4CFB6016E0D7F1D6053E6
:101C40007F4F4AE050E0CE0141967AD4FE01719672
:101C5000BFEF4B1A5B0A6B0A7B0A20E14216510464
:101C60006104710464F481919FEB980F9A3108F438
:101C7000805ED8018D938D018111EACF09C030E1DA
:101C8000431651046104710419F081E791E016C014
:101C9000BF92AF929F928F92D4DAF701259135913E
:101CA0004591559167E271E0C501F5DE0F900F9007
:101CB0000F900F908F3F19F486E991E0B8DEF9E2BA
:101CC000EF0EF11C2BE4E21621E0F20609F09FCFA3
:101CD0002FEF3FEFA90167E271E089E391E0DBDEDE
:101CE00081E0A096E0E1D9C34F925F926F927F921C
:101CF0008F929F92AF92BF92DF92EF92FF920F93DB
:101D00001F93CF93DF9300D000D01F92CDB7DEB7E3
:101D1000E090F103F090F2030091F3031091F403CB
:101D2000E982FA820B831C8325EF33E0812C912C0E
:101D30005401E980FA800B811C818E149F04A00657
:101D4000B106ACF47C01F901412C512C3201D701D0
:101D500041914423C1F00FEFE01AF00A5C91451362
:101D60000AC01FEF411A510A610A710AF0CF6FEFE2
:101D70007FEFCB0165C00FEF801A900AA00AB00A6E
:101D80002B5E3F4FD6CF7D83D62E40E150E060E002
:101D900070E064DE698385E1889D8001899D100D76
:101DA00011240B5F1B4F40E150E060E070E0C80180
:101DB00055DEA9812A2FAA0F330B440B550B24198A
:101DC0003509460957092B013C01B1E04B1A51086E
:101DD00061087108420E531E641E751EE1E14E1625
:101DE0005104610471041CF62B013C01D801ED2D56
:101DF000FD8181E0481A5108610871081414150426
:101E0000160417041CF48D918193F3CF1216130658
:101E1000140615064CF4D7018D917D018193215054
:101E2000310941095109F2CF85E1889DF001899D71
:101E3000F00D1124EB50FC4F6189728983899489DC
:101E40000F900F900F900F900F90DF91CF911F91F7
:101E50000F91FF90EF90DF90BF90AF909F908F9089
:101E60007F906F905F904F900895CF92DF92EF92A6
:101E7000FF92FB01C12CD12C7601C216D306E406D9
:101E8000F50664F46191DC016D93CD01662341F0A8
:101E9000BFEFCB1ADB0AEB0AFB0AEFCF8FEF01C0D3
:101EA00081E0FF90EF90DF90CF900895A0E1B0E047
:101EB000EBE5FFE0DAC28B0149015A0120E130E095
:101EC00040E050E0BC01CE010196CFDF8F3FF1F042
:101ED000C12CD12C76010DC020E130E040E050E073
:101EE000B801CE010196C1DF8FEFC81AD80AE80AFF
:101EF000F80A8091F1039091F203A091F303B0915D
:101F0000F403C816D906EA06FB0614F08FEF0AC0E0
:101F1000B801CE010196E8DE681579058A059B05B2
:101F2000D9F2862F6096ECE0BCC2A0E1B0E0EAE90D
:101F3000FFE0A3C2FC01CB018A01259135914591B7
:101F40005591BE016F5F7F4FB1DF682F880F770B10
:101F5000880B990B6F3F2FEF72078207920731F0C2
:101F60009801AE014F5F5F4F04DA01C08FEF6096BA
:101F7000E4E09FC2CF93C82F8A3011F08D3049F42E
:101F8000FB0185AD882329F08DE00E94CE018AE017
:101F90000FC080EE8C0F8F3550F0FB0184AD88238D
:101FA00031F08EE50E94CE0180E48C0F01C08C2FB1
:101FB0000E94CE01CF910895EF92FF921F93CF938D
:101FC000DF93EC01142F8CA19DA167DB082E000C80
:101FD000990BAA0BBB0BB7FF03C080E090E0DC01BC
:101FE00029AD2235C1F48097A105B1050CF04DC192
:101FF000EA81FB81CF0101969B838A8310832A812A
:102000003B81CE0184962817390708F418C18097C0
:102010009B838A8314C11D3019F43EAD31111AE03F
:10202000FE01E55BFF4F10822B34F1F48097A10590
:10203000B1050CF0DEC0EA81FB81CF0101969B83E4
:102040008A8310832A813B81CE0184962817390721
:1020500018F080979B838A838AAD882309F4EFC0A8
:10206000BE01812F87DFEBC0FE01EB5BFF4F80815C
:102070009E012A5B3F4F790118131EC03197808162
:102080008823D1F08A819B81F90120813181821BD3
:10209000930B9E012C5F3F4F8217930708F48096A5
:1020A0009B838A83F70110821182128213828DE052
:1020B0000E94CE018AE0A0C0FE01E05CFF4F80815B
:1020C000181721F03196808118134CC08FAD8823EA
:1020D00009F448C0F70180819181A281B38118166B
:1020E00019061A061B060CF0D0C00197A109B10908
:1020F00080839183A283B3838A819B819C01215039
:102100003109AE014C5F5F4F2417350718F03B8350
:102110002A8303C04F969B838A838AAD882309F460
:10212000B4C0EA81FB81808180528F3578F08CAD1C
:10213000882361F088E00E94CE018BAD882331F0C6
:1021400080E20E94CE0188E00E94CE0188E00E94D9
:10215000CE018BAD882309F498C080E20E94CE01A5
:1021600088E04AC01A3011F01D3049F58AAD882345
:1021700019F0BE01812FFEDEEA81FB81CF010196BD
:102180009B838A8310832A813B81CE018496281702
:10219000390718F080979B838A83F701408151812A
:1021A000628173814F5F5F4F6F4F7F4F8CA19DA105
:1021B0000DDBF701108211821282138266C08CA19E
:1021C0009DA16BDA082E000C990BAA0BBB0BB7FF75
:1021D00003C080E090E0DC01F70140815181628121
:1021E0007381840F951FA61FB71F4F97A105B105D7
:1021F00034F0C15BDF4F88810E94CE0146C0FE01F2
:10220000ED5BFF4F90818AAD19131DC0319790810E
:102210009923C9F0882319F0BE01812FABDEF701A5
:1022200080819181A281B381892B8A2B8B2B69F5C7
:10223000EA81FB81CF0101969B838A8310838CA165
:102240009DA191DA22C0882319F0BE01812F92DE70
:10225000F70180819181A281B3810196A11DB11DF9
:1022600080839183A283B383EA81FB81CF010196AE
:102270009B838A8310832A813B81CE018496281711
:10228000390718F080979B838A83DF91CF911F9144
:10229000FF90EF900895CF92DF92EF92FF92CF934D
:1022A000DF93FC01E55BFF4F2081211165C0EC014C
:1022B0002CA93DA98EA99FA92817390761F02CA93F
:1022C0003DA98EA99FA92817390759F4C12CD12CF3
:1022D0007601C3941CC08AA99BA9DFD988307CF3FE
:1022E0004BC0EEA1FFA1CF0101969FA38EA38081D9
:1022F0000E94CE012CA93DA9CE01C9962817390705
:1023000018F001979DAB8CABC12CD12C76018AA91A
:102310009BA9C3D928E030E0281B310987FD3395FC
:10232000CA94CD28CE28CF28E9F412161306D4F487
:10233000EEA1FFA1CF0101969FA38EA380810E94F1
:10234000CE012EA13FA1CE01C2962817390718F061
:1023500008979FA38EA341E050E060E070E08AA957
:102360009BA934DA2CA93DA98EA99FA92817390762
:1023700019F48AA99BA991D9DF91CF91FF90EF9091
:10238000DF90CF900895E4EDF0E06591759150E510
:10239000569FC001579F900D1124875B9B4F60E0B3
:1023A00070E0232B09F077CF07CE80E284B9C0E23A
:1023B00064EF71E080E090E05CDAC5B964EF71E051
:1023C00080E090E056DA15B8F3CF1F921F928CE4AC
:1023D00091E09F938F931F928AE08F931F9280E8E2
:1023E0008F9385ED91E19F938F930E943A0320D9BB
:1023F0008DB79EB70A960FB6F8949EBF0FBE8DBFDD
:1024000061E070E080E090E078DA81E40E94CE0143
:10241000F7CF052E97FB16F400940FD057FD05D08B
:1024200055D007FC02D046F408C050954095309531
:1024300021953F4F4F4F5F4F089590958095709530
:1024400061957F4F8F4F9F4F089562D0A59F900D4C
:10245000B49F900DA49F800D911D112408952F927B
:102460003F924F925F926F927F928F929F92AF9224
:10247000BF92CF92DF92EF92FF920F931F93CF9371
:10248000DF93CDB7DEB7CA1BDB0B0FB6F894DEBF08
:102490000FBECDBF09942A88398848885F846E842E
:1024A0007D848C849B84AA84B984C884DF80EE8078
:1024B000FD800C811B81AA81B981CE0FD11D0FB681
:1024C000F894DEBF0FBECDBFED010895A1E21A2E34
:1024D000AA1BBB1BFD010DC0AA1FBB1FEE1FFF1FC8
:1024E000A217B307E407F50720F0A21BB30BE40B18
:1024F000F50B661F771F881F991F1A9469F760955F
:102500007095809590959B01AC01BD01CF01089518
:10251000A29FB001B39FC001A39F700D811D112424
:10252000911DB29F700D811D1124911D0895FC0114
:1025300005900020E9F7809590958E0F9F1F0895D4
:10254000FB01DC014150504048F005900D92002005
:10255000C9F701C01D9241505040E0F70895DC01D9
:1025600001C06D9341505040E0F70895AEE0B0E0F7
:10257000EBEBF2E182CF8C01FA0186E08C831A83C7
:10258000098377FF02C060E070E8CB0101979E836A
:102590008D83A901BF01CE01019611D04D815E81CD
:1025A00057FD0AC02F813885421753070CF49A0152
:1025B000F801E20FF31F10822E96E4E07ACFABE031
:1025C000B0E0E4EEF2E14BCF6C017B018A01FC014B
:1025D00017821682838181FFBFC1CE0101963C0123
:1025E000F6019381F70193FD859193FF81917F011E
:1025F000882309F4ADC1853239F493FD859193FFA9
:1026000081917F01853221F4B60190E0C0D1E8CFFD
:10261000912C212C312CFFE1F315D8F08B3279F07D
:1026200038F4803279F08332A1F4232D20611DC06B
:102630008D3261F0803369F4232D216016C0832D23
:102640008260382EE32DE4603E2E2AC0F32DF86020
:102650001DC037FC2DC020ED280F2A3040F08E32EF
:10266000B9F436FC75C1232D2064322E19C036FE14
:1026700006C08AE0989E200D1124922E11C0EAE037
:102680002E9E200D1124222EF32DF0623F2E08C025
:102690008C3621F4832D8068382E02C0883641F4B0
:1026A000F70193FD859193FF81917F018111B3CF54
:1026B000982F9F7D9554933028F40C5F1F4F9FE314
:1026C00099830DC0833631F0833771F0833509F07B
:1026D00055C020C0F801808189830E5F1F4F882478
:1026E0008394912C530112C02801F2E04F0E511C2B
:1026F000F801A080B18036FE03C0692D70E002C0F1
:102700006FEF7FEFC50138D14C018201F32DFF77C8
:102710003F2E15C0280122E0420E511CF801A08076
:10272000B18036FE03C0692D70E002C06FEF7FEF0D
:10273000C50117D14C01F32DF0683F2E820133FC07
:1027400019C0822D90E088169906A0F4B60180E2A7
:1027500090E01DD12A94F5CFF50137FC859137FE25
:1027600081915F01B60190E012D121102A9421E0FD
:10277000821A91088114910479F7E1C0843611F02E
:10278000893639F5F80137FE07C060817181828191
:1027900093810C5F1F4F08C060817181072E000C70
:1027A000880B990B0E5F1F4FF32DFF763F2E97FF7F
:1027B00009C090958095709561957F4F8F4F9F4F81
:1027C000F0683F2E2AE030E0A3011DD1882E861844
:1027D00044C0853731F4232D2F7EB22E2AE030E01D
:1027E00025C0932D997FB92E8F36C1F018F4883506
:1027F00079F0AEC0803719F0883721F0A9C0E92FF1
:10280000E061BE2EB4FE0DC0FB2DF460BF2E09C0EA
:1028100034FE0AC0292F2660B22E06C028E030E020
:1028200005C020E130E002C020E132E0F801B7FE4F
:1028300007C060817181828193810C5F1F4F06C048
:102840006081718180E090E00E5F1F4FA301DBD0BB
:10285000882E8618FB2DFF773F2E36FE0DC0232DC8
:102860002E7FA22E891458F434FE0BC032FC09C00E
:10287000832D8E7EA82E05C0B82CA32C03C0B82CA7
:1028800001C0B92CA4FE0FC0FE01E80DF11D80812E
:10289000803321F49A2D997EA92E09C0A2FE06C08C
:1028A000B394B39404C08A2D867809F0B394A3FC42
:1028B00010C0A0FE06C0B21480F4280C922C9B1805
:1028C0000DC0B21458F4B60180E290E060D0B39429
:1028D000F8CFB21418F42B1802C0982C212CA4FEA7
:1028E0000FC0B60180E390E052D0A2FE16C0A1FC5A
:1028F00003C088E790E002C088E590E0B6010CC014
:102900008A2D867851F0A1FE02C08BE201C080E2E0
:10291000A7FC8DE2B60190E03AD0891430F4B601FC
:1029200080E390E034D09A94F8CF8A94F301E80DD4
:10293000F11D8081B60190E02AD08110F6CF2220CF
:1029400009F44ECEB60180E290E021D02A94F7CF70
:10295000F6018681978102C08FEF9FEF2B96E2E10F
:102960009ACDFC010590615070400110D8F7809518
:1029700090958E0F9F1F0895FC016150704001904B
:102980000110D8F7809590958E0F9F1F08950F9393
:102990001F93CF93DF93FB01238121FD03C08FEFB2
:1029A0009FEF2CC022FF16C04681578124813581BC
:1029B0004217530744F4A081B1819D012F5F3F4F1F
:1029C000318320838C93268137812F5F3F4F37835C
:1029D000268314C08B01EC01FB010084F185E02DFE
:1029E0000995892BE1F6D80116968D919C91179740
:1029F000019617969C938E931697CE01DF91CF91F7
:102A00001F910F910895FA01AA27283051F1203122
:102A100081F1E8946F936E7F6E5F7F4F8F4F9F4F72
:102A2000AF4FB1E03ED0B4E03CD0670F781F891FB4
:102A30009A1FA11D680F791F8A1F911DA11D6A0F82
:102A4000711D811D911DA11D20D009F468943F9135
:102A50002AE0269F11243019305D3193DEF6CF0134
:102A60000895462F4770405D4193B3E00FD0C9F7FA
:102A7000F6CF462F4F70405D4A3318F0495D31FD67
:102A80004052419302D0A9F7EACFB4E0A6959795BA
:102A9000879577956795BA95C9F700976105710590
:102AA00008959B01AC010A2E0694579547953795DA
:102AB0002795BA95C9F7620F731F841F951FA01D34
:022AC000089577
:102AC200C0000500201B5B306D1B5B324A1B5B3B69
:102AD20048000A467265654D454D3A2564202862D4
:102AE20079746573290A0A006E756C6C70006D61E9
:102AF200696E00202025730A002F6465762F004836
:102B02006F6C61206D756E646F210A006C656400E4
:00000001FF
